:020000040800F2
:1000000058370020AD4B0008B54B0008B74B00082F
:10001000B94B0008BB4B0008BD4B000800000000B6
:10002000000000000000000000000000BF4B0008BE
:10003000C14B000800000000C34B0008C54B00087E
:10004000C74B0008C74B0008C74B0008C74B000848
:10005000C74B0008C74B000831140008891400087A
:10006000C74B0008C74B0008C74B0008C74B000828
:10007000C74B0008C74B0008C74B0008C74B000818
:10008000C74B0008C74B0008C74B0008C74B000808
:1000900007110008C74B0008C74B0008C74B0008F2
:1000A000C74B0008C74B0008C74B0008C74B0008E8
:1000B0006B070008C74B0008CD070008C74B0008B6
:1000C000C74B0008C74B0008C74B0008C74B0008C8
:1000D000C74B000857050008C74B0008C74B00086E
:1000E000C74B0008C74B0008C74B000800F002F8D8
:1000F00000F04CF80AA090E8000C82448344AAF176
:100100000107DA4501D100F041F8AFF2090EBAE873
:100110000F0013F0010F18BFFB1A43F0010318473B
:1001200044F0000064F00000103A24BF78C878C1A1
:10013000FAD8520724BF30C830C144BF04680C60ED
:10014000704700000023002400250026103A28BF35
:1001500078C1FBD8520728BF30C148BF0B60704739
:10016000642904F0D186002070471FB59DE8030084
:1001700004F0F0FF05F0A8F904000020002105F0CC
:1001800053FA401C60601FBD10B510BD05F077F933
:100190001146FFF7EAFF03F0CDFD05F0A7F903B420
:1001A000FFF7F2FF03BC05F0D7F9000030BF0000F5
:1001B0004FF0E021096921F004014FF0E0221161C4
:1001C000C21700EB5272C2F3C702234B1A701946D2
:1001D000097801EB4102C2EBC1114FF6FF7202EA4E
:1001E000C1011E4A1180704701461C4A12884A43C9
:1001F0004FF0E0235A6100229A6101221A6100BF88
:100200004FF0E022106900F001021AB100F48032D0
:10021000002AF5D000224FF0E0231A619A6170475E
:1002200001460D4A12784A434FF0E0235A610022FA
:100230009A6101221A6100BF4FF0E022106900F0BC
:1002400001021AB100F48032002AF5D000224FF0EA
:10025000E0231A619A61704700000020020000202C
:10026000AA4A0A400243AA4B1A6070470146072374
:1002700023EA01021202A64B1B1D18684FF6FF036A
:100280001840A44B18431043A14B1B1D1860704726
:100290002DE9F0478046894614461D462046E11761
:1002A00004EB9171C1F3870AE11704EB9171891096
:1002B000A4EB8101CFB2042000EBC700C7B22846EF
:1002C000FFF7D4FFC5F1040008FA00F60F2028411B
:1002D00000EA0900064306F00F06202C09DA8E48D2
:1002E00001680120A04001434FF0E020C0F8001158
:1002F0000BE08948001D0068A4F1200101228A401A
:1003000010434FF0E021C1F80401844850F82A005E
:1003100006FA07F10843814941F82A00BDE8F08751
:1003200070B504460B46CE1701EB9676C6F38700F0
:10033000CE1701EB9676B610A1EB8606B606350E03
:10034000774B9B6943F00103754EB3614FEAB633B7
:1003500053F820300F26AE40B343724E46F820309B
:10036000334653F8203004FA05F61E436D4B43F82C
:1003700020606D4B1B6801268E4033436A4E33600C
:1003800002F0010343B1684B0C331B6801268E4019
:100390003343654E0C36336002F0020343B1624BC7
:1003A00008331E6801238B401E435F4B08331E60D9
:1003B00070BD00B500205A490861C860142048612A
:1003C00000208861C8610846006840F001000860AC
:1003D0000846406855490840514948600846006849
:1003E000534908404E4908600846006820F48020C0
:1003F00008600846406820F4FE00486000208860DD
:1004000000214FF00060FFF72BFF00BD10B5404802
:100410000830006840F004003D4908310860404859
:10042000C06940F080503E49C8614248406840F48D
:100430008070404948600846006840F00400086049
:100440000846006840F002000860FFF7AFFE10BDEC
:100450003048001D2E49091D0860704701464906B5
:100460002F4A926942F001022D4B9A612D4A083AB7
:10047000526822F0E0622B4B083B5A601A465268E1
:100480000A435A60704730B504460025FFF791FFD4
:100490002348006840F480302149086000BF2048AC
:1004A0000068400C0028FAD04FF480601C49486076
:1004B000A01EC4B20846406840EA8440486008462E
:1004C000406840F4803048601B48006840F03200CB
:1004D000194908601248006840F0807010490860AF
:1004E00000BF0F480068400E0028FAD00C48406852
:1004F00040F002000A49486005E009484068C0F33E
:10050000870505F00305022DF7D130BD80FFFF1FE1
:1005100008ED00E00000FA0500E100E000E400E082
:100520000010024008000140000401400000FFF8F4
:10053000FFFFF6FE007000400020024010B54FF4AF
:1005400097727549754804F054FD4FF497717248DD
:1005500004F094FD10BD10B57148008800F0200033
:1005600008B36F48001D0088C4B26B48B0F82C0176
:10057000B0F5967F15DA002000F00FF96648B0F864
:100580002C0110B9012000F00BF96348B0F82C11D0
:10059000B0F82C01401C604AA2F82C0110464454CB
:1005A00001E0FFF7CBFF10BD70B504460D4642F2E7
:1005B00010706043B0FBF5F0401D0A21B0FBF1F66E
:1005C00006EB86000121C1EB4006B0B241F61F41A7
:1005D00000F011F970BD2DE9F05F05460E463001BF
:1005E00005F07CF981464F4905FB01F005F076F9ED
:1005F0008246494605F090F80746384605F04EF920
:1006000084B2204605F06AF98346394605F046FA79
:1006100082464FF0834105F075F9814605F03EF9B9
:1006200080464FF6FF7000EA041404EB080084B221
:100630003D48806940F004003B4988610846806974
:1006400040F4804088613948006820F47F60374971
:1006500008600846006840F40B6008603248C068D3
:1006600040F480403049C8600846C06820F48040AB
:10067000C8602B4808300480001D008842F20C013D
:10068000084327490C3108800846008840F48070F0
:1006900008800846008840F02000088002232522B8
:1006A00003210120FFF7F4FD31462820FFF77CFFEE
:1006B000BDE8F09F10B504461848B0F82C0160B1B1
:1006C0004FF497721549204604F093FC4FF497714C
:1006D000124804F0D3FC012010BD0020FCE70146C5
:1006E000B1F82C01B0F5967F01DD002070470022A3
:1006F0000CE0885C0A4B1B1D188000BF084800886E
:1007000000F040000028F9D0501C82B2B1F82C0152
:100710009042EEDC0120E9E7540000208201002035
:100720000038014040420F00001002400408014020
:1007300070B505460C465648C06940F00100544962
:10074000C861880485850485808940F0010089049A
:1007500088810846008840F00100088002231C229E
:1007600003210846FFF794FD70BD10B54FF080409F
:10077000008A00F0010078B103F079FA00F0C7FDBB
:1007800000F0FDFD00F0AEFD4FF08040008A20F04B
:1007900001004FF08041088210BD3E49088070473B
:1007A00058B13C492439098841F00101394A243AB9
:1007B00011800021374A118007E036492439098821
:1007C00021F00101334A243A1180704710B53148B5
:1007D0001438008800F0010060B1FFF7AFFE2D482B
:1007E0001438008820F001002A49143908800020BC
:1007F000FFF7D6FF10BD70B504460D462448C0690A
:1008000040F004002249C861224808300480001FDB
:10081000058020481838008840F001001D4918392B
:1008200008801C48243800881A492439088002238B
:100830001E2203210120FFF72BFD70BD70B5054678
:100840000C461348C06940F002001149C8611249C2
:100850000D80091F0C8010481C38008820F0010012
:100860000D491C390880081F008840F00100091F4D
:10087000088009482C38008840F0010006492C39CE
:10088000088002231D2203211846FFF701FD70BDD9
:1008900000100240240800402C040040C448C54910
:1008A0004860C54848607047C248006940F0800011
:1008B000C04908617047BF48C16801F0010008B134
:1008C0000120704701F0040008B10220F9E701F0AF
:1008D000100008B10320F4E70020F2E770B50446E9
:1008E00000BFFFF7E8FF0546012D00D006E001201C
:1008F000FFF796FC601E84B2002CF2D100BF04B951
:10090000FF25284670BD70B50546002445F6FF70EA
:10091000FFF7E4FF0446C4B9A648006940F00200AE
:10092000A449086108464561006940F0400008613B
:1009300045F6FF70FFF7D2FF0446012C05D09D4815
:10094000006920F002009B490861204670BD70B527
:1009500005460E46FF20FFF7C1FF044694B99548AF
:10096000006940F00100934908612E80FF20FFF7E5
:10097000B5FF0446012C05D08E48006920F0010027
:100980008C490861204670BD0146088870472DE9F2
:10099000F04105460E461746002407E036F81410CD
:1009A0002846FFF7D4FFAD1C601C84B2BC42F5DBC7
:1009B000BDE8F08130B503460C461546002207E03D
:1009C0001846FFF7E1FF24F812009B1C501C82B26E
:1009D000AA42F5DB30BD2DE9F05F80468A46174616
:1009E000B8F1006F02D37548804501D3BDE8F09F90
:1009F000FFF754FFA8F1006B4FEA9B25CBF34809A2
:100A0000C9F50074A74200DC3C464DE04FF00061A0
:100A100001EB85208A146A49FFF7CCFF00260BE022
:100A200009EB0600664931F810004FF6FF71884265
:100A300000D003E0701C86B2A642F1DB00BFA642E4
:100A40001BDA4FF0006101EB8520FFF75CFF002609
:100A500008E03AF8160006EB0901594A22F811009D
:100A6000701C86B2A642F4DB4FF0006101EB8520DA
:100A70008A145349FFF78BFF04E022465146404653
:100A8000FFF785FFA74200D10FE06D1C4FF0000972
:100A90000AEB440AA044381B87B2B7F5007F02DD99
:100AA0004FF4007400E03C46B0E700BFFFF7FCFEE7
:100AB00000BF9BE72DE9F04704460E464FF00009C2
:100AC0000025AA46B4F1006F02D304F0010008B17A
:100AD000BDE8F087FFF7E2FE3648006820F480604A
:100AE00034490860254604EB460A364885421AD246
:100AF00016E02846FFF748FF4FF6FF7188420ED0F8
:100B0000A5F100684FEA98274FF0006101EB8720BC
:100B1000FFF7F9FE8146B9F1000F01D002E0AD1CEC
:100B20005545E6D300BF2348006840F48060214962
:100B30000860FFF7B9FE00BFCAE713B504460122FB
:100B400001A92046FFF747FF1CBD2DE9F0470446E9
:100B50000D4616460027B846B946B4F1006F02D3D9
:100B600004F0010008B1BDE8F087FFF797FE1148D7
:100B7000006820F480600F490860A04604EB460935
:100B80005FB907E029882046FFF7E1FE00B103E0E6
:100B9000A41CAD1C4C45F5D300BF0648006840F4CA
:100BA000806004490860FFF77FFE00BFDBE70000BC
:100BB0002301674500200240AB89EFCD000001080A
:100BC000B00200200000FF1FFE480146C1F8BC042F
:100BD000C1F8C0040020A1F8C404FB480146C1F8D4
:100BE000BC04C1F8C0040020A1F8C40470472DE97A
:100BF000F04704460D4616461F46DDF820A04FF08C
:100C00000008C14614B10DB106B117B90120BDE805
:100C1000F087601EC4B2681EC5B2701EC6B2781ED0
:100C200087B2EA48806940F00100E84988610846D7
:100C3000806940F008008861E548406820F4C040C1
:100C4000E34948600846406840F480404860E14815
:100C5000006820F0FF00DF4908600846006840F0A7
:100C6000B8000860DB480830006840F44070D9499B
:100C700008310860D548C06940F00070D349C861A8
:100C80000020D54908600846006840F0010008606F
:100C900008E008F101001FFA80F8B8F1640F01DDE7
:100CA0000220B4E7CC48001D006800F001000028D5
:100CB000EFD0C9480068C84908600846006840F09D
:100CC0004000086008460068086008460068086040
:100CD0000846006808600846006808600020BE49B1
:100CE0001C3108600846006840EA8A7008600846BF
:100CF000006840EA046008600846006840EA055061
:100D000008600846006840EA064008600846006837
:100D100038430860B148006840F00100AF490860FE
:100D2000AE481C30006820F00100AC491C3108605E
:100D30000846006820F0020008600846006820F0BD
:100D400004000860A5480C30006840F00700A34983
:100D50000C310860A148001D0068A049091D086009
:100D60000846006808600846006808609B48143020
:100D700000689A491431086008460068086008460F
:100D80000068086096480088400594494031086032
:100D900000219248443001609248008841058F4804
:100DA000483001609049001D01609048008841056D
:100DB0008A48503001604FF07041001D0160874843
:100DC0001C30006840F0010084491C31086008466E
:100DD000006840F0020008600846006840F0040027
:100DE00008607E48006820F001007C4908607A486D
:100DF0001430006840F00200774914310860022383
:100E0000142201210846FFF743FA7348006820F0D6
:100E100001007149086009E008F101001FFA80F83B
:100E20004FF6F070804501DD0320F0E66A48001DB2
:100E3000006800F001000028EED109E009F101008E
:100E40001FFA80F94FF6F070814501DD0120DEE6E2
:100E500061481830006800F004000428EED0FFF765
:100E6000B3FE0020D3E60146B1F8C40480B2704757
:100E70000246B2F9C40464281EDA02F2BC421089A8
:100E8000401C00B2108110680B6803604B6843601F
:100E9000087A1368187248891368588110680C30F2
:100EA00010601368A2F2BC4202F59660834201D141
:100EB000C2F8BC24002070470220FCE770B504464D
:100EC0000D462046FFF7CFFF012801DA052070BD4F
:100ED00004F59864A088401E00B2A08020680168D4
:100EE0002960406868602068007A2872206840891C
:100EF000688120680C3020602168A4F5986404F5AE
:100F00009660814201D1C4F8C0440020DFE707B5F4
:100F100031480830006800F0806008B1002111E01D
:100F20002D480830006800F0006008B1012109E098
:100F300029480830006800F0805008B1022101E023
:100F400000200EBD00222548803800EB0110026011
:100F50002248803800EB01100068BDF80A2040EA02
:100F600042521E48803800EB011002601B48803856
:100F700000EB01100068194A803A02EB0112106080
:100F80001648803800EB01100068144A803A02EBE2
:100F9000011210601148803800EB0110406820F009
:100FA0000F020E48803800EB011042600B48803879
:100FB00000EB011040689DF808201043074A803A72
:100FC00016E00000B0060020780B00200010024060
:100FD00000000140040C0140006400400066004035
:100FE000A25B0008A45B00080000E0FFA65B00080D
:100FF00002EB011250609DF8070000069DF80620E4
:1010000040EA02409DF8052040EA02229DF80400D3
:101010000243524800EB0110C2609DF80300000635
:101020009DF8022040EA02409DF8012040EA022299
:101030009DF800000243494800EB011082604748D8
:1010400000EB0110006840F00102444800EB011081
:101050000260012075E7414A303202EB001252680B
:1010600002F00F020A723D4A303202EB001212689F
:10107000520D4A81394A303202EB001292680A70EE
:10108000364A303202EB00129268120A4A70334A32
:10109000303202EB00129268120C8A702F4A303202
:1010A00002EB00129268120ECA702C4A303202EB28
:1010B0000012D2680A71294A303202EB0012D2685B
:1010C000120A4A71254A303202EB0012D268120C21
:1010D0008A71224A303202EB0012D268120ECA71B3
:1010E00030B91F4A126842F020021D4B1A6009E015
:1010F000012807D11A4A121D126842F02002184B2B
:101100001B1D1A6070470EB569460020FFF7A3FF4C
:1011100069461448FFF7ACFE0EBD10B504462146E3
:101120001148FFF7A5FE08B9002010BD0120FCE71B
:1011300010B5044621460B48FFF7C0FE08B9002051
:1011400010BD0120FCE70EB569460748FFF7B6FE63
:1011500018B99DE80700FFF7DAFE0EBD8065004074
:101160000C640040780B0020B0060020CB4880695A
:1011700040F00400C94988610846806940F00800D1
:101180008861C748006820F0FF00C549086008462C
:10119000006840F088000860C1480C30006840F0EA
:1011A0000300BF490C310860BE48006820F0FF0012
:1011B000BC4908600846006840F088000860B948EB
:1011C0000C30006840F00300B6490C3108607047ED
:1011D0000346012B02D0022B07D102E0B24802687D
:1011E00004E0B148001F026800E000BF00BF82B900
:1011F000012008600869401C08610869B0F57A7F21
:1012000018DD01208860C868401CC86000200861A3
:1012100010E00869322807DDC868401CC86001205A
:1012200048600020086103E0002008600861486011
:1012300000208860704710B59C48406801280AD19A
:101240009B480068012806DD99480068401E9849BF
:10125000086002F00EFA9748406801280AD19448C5
:101260000068042806DA92480068401C904908602B
:1012700002F0FFF9002010BD10B58F48006801286A
:1012800002D100208D4908608B48001D00680128AC
:1012900002D100208A49086084490120FFF798FFA5
:1012A00084490220FFF794FFFFF7C5FF002010BD1F
:1012B00010B5FFF75BFF012200211046FFF730F861
:1012C000012211461046FFF72BF8022306220021C7
:1012D0001846FEF7DDFF0223072201211846FEF71C
:1012E000D7FF10BD7548006801280ED1744800680A
:1012F00001280AD173480069012806D17148406964
:1013000018B901206F4908604861002070476B4898
:101310000068012805D169480069401C67490861D7
:1013200002E000206549086164480069B0F57A7FF1
:1013300023DD65480068401C634908600846006872
:10134000FA281ADD5F480069012813D15D48406919
:1013500080B95C480068401C5A490860084600682B
:101360004968884203DB57484068564908600120B5
:101370005449486100205449086000207047504893
:101380000068012805D14E480069401C4C4908619D
:1013900002E000204A49086149480069B0F57A7FB7
:1013A00020DD4A480068401C48490860084600683B
:1013B000FA2817DD43480069012810D141484069E7
:1013C00068B940480068401E3E4908600846006809
:1013D000012801DC0120086001203A494861002011
:1013E0003A4908600020704733480068F0B901208E
:1013F000324908600846C068401CC860314800692E
:10140000012813D12F48406980B92E480068401C3C
:101410002C490860084600684968884203DD29486D
:10142000406828490860012026494861002070472B
:1014300010B50A20FEF7D8FEFFF7D6FF0120244999
:10144000086010BD1C48001D0068D8B901201C4967
:1014500008600846C068401CC8601A480069012836
:1014600010D11848406968B916480068401E1549EF
:10147000086008460068012801DC0120086001209E
:10148000104948610020704710B50A20FEF7ACFEF5
:10149000FFF7D8FF02200E49086010BD001002407F
:1014A00000080140000C014004012142701000209E
:1014B0000C000020881000200081214258100020DC
:1014C00040100020342300200400002008000020E9
:1014D000140401400022FD4B1A60002117E0002295
:1014E000FA4B08331A6000F0800222B10122F74B58
:1014F00010331A6003E00022F44B10331A6001220B
:10150000F24B08331A604206100E4A1CD1B2082969
:10151000E5DB0122ED4B1A60704710B5044620460A
:10152000FFF7D8FF10BD10B504462012FFF7D2FF19
:10153000E0B2FFF7CFFF10BD10B504460020E3492D
:10154000091F08602046FFF7C5FF0120E049C1F8E8
:10155000A80110BD00B52920FFF7EEFF00BD00B5C2
:101560002820FFF7E9FF00BD00B52220FFF7E4FFC8
:1015700000BDD848806940F00400D6498861D6484B
:101580000068D6490840D449086008460068D44934
:101590000843D1490860D0480C30006840F00C0086
:1015A000CD490C3108607047F0B507460C4615462A
:1015B0001E462A20FFF7C0FF3846FFF7B4FF284633
:1015C000FFF7B1FF2B20FFF7B7FF2046FFF7ABFF78
:1015D0003046FFF7A8FF2C20FFF7AEFFF0BD10B597
:1015E000BC48806940F00800BA49886108468069B3
:1015F00040F0040088610846806940F0100088616E
:10160000B8480068B8490840B6490860084600680C
:10161000B6490843B3490860B2480830006840F44E
:101620002C40B04908310860FFF7A3FF0020B04903
:1016300008600120AF49C1F88C01AD49083108604C
:101640000020AC49C1F894011120FFF775FF782004
:10165000FEF7CAFD3620FFF76FFF7020FFF75DFF32
:101660003A20FFF769FF0520FFF757FFB220FFF789
:1016700063FF0C20FFF751FF0C20FFF74EFF002007
:10168000FFF74BFF3320FFF748FF3320FFF745FFFD
:10169000B720FFF751FF3520FFF73FFFBB20FFF7D3
:1016A0004BFF1920FFF739FFC020FFF745FF2C2023
:1016B000FFF733FFC220FFF73FFF0120FFF72DFFA9
:1016C000C320FFF739FF1220FFF727FFC420FFF7E1
:1016D00033FF2020FFF721FFC620FFF72DFF0F204B
:1016E000FFF71BFFD020FFF727FFA420FFF715FF10
:1016F000A120FFF712FFE020FFF71EFFD020FFF729
:101700000CFF0420FFF709FF0D20FFF706FF112053
:10171000FFF703FF1320FFF700FF2B20FFF7FDFE6D
:101720003F20FFF7FAFE5420FFF7F7FE4C20FFF7AB
:10173000F4FE1820FFF7F1FE0D20FFF7EEFE0B2060
:10174000FFF7EBFE1F20FFF7E8FE2320FFF7E5FE83
:10175000E120FFF7F1FED020FFF7DFFE0420FFF7C6
:10176000DCFE0C20FFF7D9FE1120FFF7D6FE132078
:10177000FFF7D3FE2C20FFF7D0FE3F20FFF7CDFE72
:101780004420FFF7CAFE5120FFF7C7FE2F20FFF7C6
:10179000C4FE1F20FFF7C1FE1F20FFF7BEFE202062
:1017A000FFF7BBFE2320FFF7B8FE2120FFF7C4FEA2
:1017B0002920FFF7C1FE10BD2DE9F04706460F4670
:1017C00014461D46DDF820A0681E83B2601E82B25A
:1017D00039463046FFF7E8FEB8460EE0B14606E06F
:1017E0005046FFF7A0FE09F101001FFA80F9A1455C
:1017F000F6DB08F101001FFA80F8A845EEDBBDE832
:10180000F08770B504460D4616462B4622462946FB
:101810002046FFF7C9FE3046FFF785FE70BD2DE973
:10182000FF4F84B081468A46002002908346069886
:10183000A0EB09050798A0EB0A06CDF80490CDF8B7
:1018400000A0002D01DD012705E00DB9002702E011
:101850004FF0FF376D42002E02DD4FF0010806E029
:1018600016B94FF0000802E04FF0FF387642B5425B
:1018700001DD2C4600E03446002003901EE0009A73
:1018800091B2019A90B2119AFFF7BBFF02982844D7
:101890000290B3440298A04205DD0298001B02901A
:1018A000019838440190A34504DDABEB040B00988C
:1018B000404400900398401C80B20390611C039840
:1018C0008842DCDB08B0BDE8F08F0000AC8121422B
:1018D000008021420010024000080140FF0000FF8C
:1018E00000333300040C0140FF000F0F0033303091
:1018F00088012142000021422DE9F84105460E46AB
:1019000017469846079C33463A4631462846009487
:10191000FFF785FF43462A46314628460094FFF7E5
:101920007EFF43463A46414628460094FFF777FF3C
:1019300043463A46314638460094FFF770FFBDE80B
:10194000F8812DE9F04306460F469046994600255A
:10195000444641E07A1B91B2321B90B24A46FFF7EF
:1019600050FF7A1B91B2321990B24A46FFF749FFF5
:101970003A1991B2721B90B24A46FFF742FF3A1BE6
:1019800091B2721B90B24A46FFF73BFF7A1991B2AF
:10199000321990B24A46FFF734FF3A1B91B27219DE
:1019A00090B24A46FFF72DFF3A1991B2721990B2E0
:1019B0004A46FFF726FF7A1991B2321B90B24A4687
:1019C000FFF71FFF6D1C05FB05F004FB040108FB7E
:1019D00008F0814200DD641EA542BBDDBDE8F08356
:1019E0002DE9FF4F0646894692469B460E9C0020F5
:1019F000039000962046E21704EB5272D210214663
:101A0000E31704EB5373DB10A4EBC3030BB1012307
:101A100000E000231A44624392B201920120029036
:101A2000002571E005EB8510FA4911F810009AF8CD
:101A30000010884265D105EB8510F64901EB4000A6
:101A400040789AF8011088425BD109EB0400401EEF
:101A500083B23019401E82B249463046FFF7A4FDDA
:101A600000274BE04FF0000842E00F98F8B905EB73
:101A70008510E84901EB4000801CC05D012101FA9E
:101A800008F1084018B15846FFF74DFD02E00D98E7
:101A9000FFF749FD0398401CC0B20390039890FBE8
:101AA000F4F104FB1100F8B90020039023E005EBEA
:101AB0008510D84901EB4000801CC05D012101FA6E
:101AC00008F1084020B15A4649463046FFF799FED2
:101AD000701C86B20098301AA04205D1009E09F110
:101AE00001001FFA80F906E008F1010000F0FF088C
:101AF000B8F1080FB9DB00BF781CC7B20198874264
:101B0000B0DB00BF681C85B2029885428ADBBDE865
:101B1000FF8F2DE9FF4F0646894692469B460E9C55
:101B20000020039000962046E21704EB5272D21078
:101B30002146E31704EB5373DB10A4EBC3030BB193
:101B4000012300E000231A44624392B20192012073
:101B50000290002579E005EB850000EB4510AE49C9
:101B600011F810009AF8001088426BD105EB85003F
:101B700000EB4510A84901EB400040789AF80110AD
:101B800088425FD109EB0400401E83B23019401E29
:101B900082B249463046FFF707FD00274FE04FF07D
:101BA000000846E00F9808BB05EB850000EB4510E8
:101BB000994901EB4000801CC05D012101FA08F148
:101BC000084018B15846FFF7AEFC02E00D98FFF749
:101BD000AAFC0398401CC0B20390039890FBF4F158
:101BE00004FB110008BB0020039025E005EB8500F5
:101BF00000EB4510884901EB4000801CC05D0121CD
:101C000001FA08F1084020B15A4649463046FFF72C
:101C1000F8FD701C86B20098301AA04205D1009ED3
:101C200009F101001FFA80F906E008F1010000F057
:101C3000FF08B8F1080FB5DB00BF781CC7B20198E8
:101C40008742ACDB00BF681C85B20298854282DB0C
:101C5000BDE8FF8F2DE9FF4F0646894692469B4619
:101C60000E9C0020039000962046E21704EB52726F
:101C7000D2102146E31704EB5373DB10A4EBC3032C
:101C80000BB1012300E000231A44624392B2019297
:101C900050200290002571E005EB05105F4911F816
:101CA00010009AF80010884265D105EB05105B49D9
:101CB00001EB400040789AF8011088425BD109EBB3
:101CC0000400401E83B23019401E82B2494630469D
:101CD000FFF76AFC00274BE04FF0000842E00F9846
:101CE000F8B905EB05104D4901EB4000801CC05DC3
:101CF000012101FA08F1084018B15846FFF713FC1A
:101D000002E00D98FFF70FFC0398401CC0B203904F
:101D1000039890FBF4F104FB1100F8B90020039044
:101D200023E005EB05103D4901EB4000801CC05D40
:101D3000012101FA08F1084020B15A4649463046CF
:101D4000FFF75FFD701C86B20098301AA04205D1E3
:101D5000009E09F101001FFA80F906E008F1010078
:101D600000F0FF08B8F1080FB9DB00BF781CC7B25C
:101D700001988742B0DB00BF681C85B2029885429B
:101D80008ADBBDE8FF8F2DE9FF4F06468946924664
:101D90009B460E9C0020039000962046E21704EB21
:101DA0005272D2102146E31704EB5373DB10A4EBFD
:101DB000C3030BB1012300E000231A44624392B233
:101DC000019201200290002582E005EB850000EBE6
:101DD000C500134911F810009AF80010884274D118
:101DE00005EB850000EBC5000D4901EB4000407894
:101DF0009AF80110884268D109EB0400401E83B2B2
:101E00003019401E82B249463046FFF7CDFB00270D
:101E100058E00000A09A0008569A0008B68F000803
:101E20009C8F00084FF0000846E00F9808BB05EBB8
:101E3000850000EBC500FE4901EB4000801CC05D41
:101E4000012101FA08F1084018B15846FFF76BFB71
:101E500002E00D98FFF767FB0398401CC0B20390A7
:101E6000039890FBF4F104FB110008BB00200390E1
:101E700025E005EB850000EBC500ED4901EB4000D6
:101E8000801CC05D012101FA08F1084020B15A46CA
:101E900049463046FFF7B5FC701C86B20098301AF0
:101EA000A04205D1009E09F101001FFA80F906E069
:101EB00008F1010000F0FF08B8F1080FB5DB00BF22
:101EC000781CC7B201988742ACDB00BF681C85B2A2
:101ED00002988542FFF679AFBDE8FF8F2DE9FE47F6
:101EE0008046894617469A46DDE90C460B9D36E04A
:101EF0000C2C09D153463A4649464046CDE90146A5
:101F00000095FFF740FF25E0102C09D153463A46D3
:101F100049464046CDE901460095FFF79BFE19E092
:101F2000182C09D153463A4649464046CDE9014668
:101F30000095FFF7EEFD0DE0202C09D153463A46FF
:101F400049464046CDE901460095FFF749FD01E0CD
:101F5000BDE8FE87BF1C08EB04001FFA80F8387844
:101F60000028C5D100BFF3E72DE9FF4F80468A4620
:101F700017469B460E9D00200290CDF80080284613
:101F800005EBD071C1F347042046E21704EB52720F
:101F9000D2102146E31704EB5373DB10A4EBC30309
:101FA0000BB1012300E000231A446A4392B201926C
:101FB000A7F12000C7B20AEB0500401E83B208EB70
:101FC0000400401E82B251464046FFF7EDFA00265B
:101FD00069E00C2D07D107EB4700964901EB800023
:101FE000805D03901BE0102D05D1934800EB071096
:101FF000805D039013E0182D07D107EB47008F4950
:1020000001EB0010805D039009E0202D05D18C4884
:1020100000EB8710805D039001E0BDE8FF8F4FF07B
:1020200000093AE00F98C8B9012000FA09F00399B5
:10203000084018B15846FFF776FA02E00D98FFF70E
:1020400072FA0298401CC0B20290029890FBF4F120
:1020500004FB1100E8B90020029021E0012000FA01
:1020600009F00399084020B15A4651464046FFF70F
:10207000C8FB08F101001FFA80F80098A8EB0000E7
:10208000A04206D1DDF800800AF101001FFA80FAB3
:1020900006E009F1010000F0FF09B9F1080FC1DB0A
:1020A00000BF701C86B20198864292DB00BFB4E785
:1020B0002DE9FE4706460F4614469846DDE90C5AC0
:1020C000DDF82C9010E0CDE9015ACDF8009022788F
:1020D000434639463046FFF747FF284605EBD071A7
:1020E00006EB61018EB2641C20780028EBD1BDE8BC
:1020F000FE872DE9FE4F81468A4615461C46DDF8CF
:1021000030B0DDE90F780E9E5A462146284602F08F
:1021100044FF60B133462246514648468DE8C0012F
:10212000FFF7C6FF5A462946204602F062FF8DE8B7
:10213000C0012A46514648460D9BFFF7B9FF0020D3
:10214000BDE8FE8F2DE9F04F87B00746884615465B
:102150009946DDE910A44FF0000B00260020069000
:102160001E2002F033FE06461E2002F02FFE0690CF
:1021700026B94FF0FF3007B0BDE8F08F07EBC40B76
:10218000BBF5A07F2DDD1E222946304602F031FF2F
:10219000002010214FF6FF724FF47843CDE9013251
:1021A000CDE903101E205346324641460090384682
:1021B000FFF79FFF002010214FF6FF724FF4784386
:1021C000CDE90132CDE90310A4F11E00009008F121
:1021D000140081B24B4605F11E023846FFF789FF15
:1021E00010E0002010214FF6FF724FF47843CDE944
:1021F0000043CDE9022104904B462A464146384629
:10220000FFF777FF304602F010FE0020B3E72DE91C
:10221000F04F85B081460E4614469A46109D4FF009
:10222000000B0027B8461E2002F0D0FD074609E04B
:102230009C8F0008A85B00081C6000080C66000862
:10224000DC7700081E2002F0C1FD804627B94FF060
:10225000FF3005B0BDE8F08FB8F1000F02D14FF0AC
:10226000FF30F6E709EBC50BBBF5A07F47DD1E226B
:102270002146384602F0BDFE1E2204F11E014046F2
:1022800002F0B7FE002010214FF6FF724FF47843A2
:10229000CDE90132CDE903101E2000903A463146C7
:1022A00048460E9BFFF725FF002010214FF6FF72D6
:1022B0004FF47843CDE90132CDE903101E200090A0
:1022C00006F1140081B2424648460F9BFFF711FF0A
:1022D000002010214FF6FF724FF47843CDE9013210
:1022E000CDE90310A5F13C00009006F1280081B271
:1022F000534604F13C024846FFF7FBFE10E0002085
:1023000010214FF6FF724FF47843CDE90053CDE929
:10231000022104905346224631464846FFF7E9FE23
:10232000384602F082FD404602F07FFD002090E733
:1023300010B50246012000E050430B1EA1F101043C
:10234000E1B2F9D110BD2DE9FF4F84B007469146A7
:102350001D46DDE912A600200390304606EBD07141
:10236000C1F3470B002434E0281B401EC1B20A20F1
:10237000FFF7DEFFB9FBF0F00A21B0FBF1F201FB41
:1023800012080398A0B9681EA04211DDB8F1000F31
:102390000CD1002004FB0B71CDE900A6029088B29D
:1023A0002022119B0599FFF7DFFD10E0012003902B
:1023B000002008F13001CAB204FB0B71CDE900A680
:1023C000029088B2119B0599FFF7CEFD00BF601CFB
:1023D000C4B2AC42C8DB08B0BDE8F08F2DE9FF4FB6
:1023E00085B0074690461C46DDE91396304606EB5D
:1023F000D071C1F3470B7049404603F083FA039054
:1024000003F04CFA80B20490002531E0601B401EBE
:10241000C1B20A20FFF78CFF0499B1FBF0F00A214A
:10242000B0FBF1F201FB120AA01EA84210D100205D
:10243000A11E01FB0B71CDE90096029088B22E22FD
:10244000129B0699FFF790FD681CC5B2601CC4B2D0
:1024500000200AF13001CAB205FB0B71CDE90096EC
:10246000029088B2129B0699FFF77EFD681CC5B2E8
:10247000A542CBDB09B0BDE8F08F2DE9F04F074650
:10248000884615461E46DDF82490002408EB060019
:10249000401E83B27819401E82B241463846FFF78B
:1024A00083F8A24618E04FF0000B0FE019F8140073
:1024B000FFF733F8012101EB440119F80100FFF7A0
:1024C0002CF8641C0BF101001FFA80FBB345EDDB17
:1024D0000AF101001FFA80FAAA45E4DBBDE8F08F9B
:1024E0002DE9FF4F05460F46DDE90E490D9EAA4630
:1024F00003974FF0000B59E0BBF1000F2FD130785C
:10250000802802DD4FF0010B50E04FF6FF708DE8A0
:10251000110232784FF4784339462846FFF724FDFC
:10252000761C08F101001FFA80F8204604EBD071F8
:1025300005EB61018DB2B5F5A07F01DD012000E062
:102540000020B8F1230F01DD012100E00021084344
:1025500060B3381987B255464FF0000826E04FF0B7
:10256000000B4FF6FF704FF47843324639468DE842
:1025700011022846FFF7B2FCB61C08F102001FFA50
:1025800080F8281985B2B5F5A07F01DD012000E0B3
:102590000020B8F11E0F01DD012100E000210843F9
:1025A00020B1381987B255464FF00008307800281E
:1025B000A2D1BDE8FF8F00000000C84200B585B081
:1025C000002010214FF6FF724FF47843CDE900212F
:1025D0000290FEA2DC210520FFF76AFD00201021F9
:1025E0004FF6FF724FF47843CDE900210290F8A234
:1025F000DC211720FFF772FC002010214FF6FF723C
:102600004FF47843CDE900210290F3A2DC2135207C
:10261000FFF74EFD002010214FF6FF724FF4784374
:10262000CDE90132CDE903100520EC4BEC4ADC2169
:1026300000903F20FFF75DFD002010214FF6FF7254
:102640004FF47843CDE900210290E6A2DC2164201A
:10265000FFF72EFDE24802F093FCE349C1F84C027B
:102660000846D0F84C0210F1550F13DB0846D0F89D
:102670004C0200280EDA002010214FF6FF724FF4B2
:102680007843CDE900210290D8A2DC218220FFF717
:1026900025FC3DE0D448D0F84C0210F1640F14DB67
:1026A000D148D0F84C0210F1550F0EDA002010215D
:1026B0004FF6FF724FF47843CDE900210290CCA28F
:1026C000DC218220FFF70AFC22E0C748D0F84C0248
:1026D00010F1640F0EDA002010214FF6FF724FF454
:1026E0007843CDE900210290C2A2DC218220FFF7CD
:1026F000F5FB0DE0002010214FF6FF724FF47843F8
:10270000CDE900210290BCA2DC218220FFF7E6FB8C
:1027100005B000BD0EB5002010214FF6FF724FF43A
:102720007843CDE900210290B44ADC21A020FFF7D4
:10273000BFFC0EBD00B585B0002010214FF6FF7222
:102740004FF47843CDE900210290ADA21421052079
:10275000FFF7C4FB002010214FF6FF724FF47843BF
:10276000CDE9002102909CA214212320FFF7A0FCB8
:102770003C21A548A0F13C03A44ACDE90001142165
:102780002D20FFF7DFFC002010214FF6FF724FF4E1
:102790007843CDE9002102909DA23C210520FFF75E
:1027A0009DFB002010214FF6FF724FF47843CDE9D6
:1027B0000021029088A23C212320FFF779FC3C21D4
:1027C00091487838A0F13C03934ACDE900012D20CF
:1027D000FFF7B8FC002010214FF6FF724FF478434A
:1027E000CDE9002102908DA264210520FFF776FB40
:1027F000002010214FF6FF724FF47843CDE90021FD
:10280000029075A264212320FFF752FC00201021C2
:102810004FF6FF724FF47843CDE900210290814AD0
:1028200064212D20FFF744FC002010214FF6FF7299
:102830004FF47843CDE9002102907BA264217820F7
:10284000FFF74CFB002010214FF6FF724FF4784346
:10285000CDE90021029060A264219620FFF728FCB8
:10286000002010214FF6FF724FF47843CDE900218C
:1028700002906C4A143A6421A520FFF719FC00204D
:1028800010214FF6FF724FF47843CDE900210290FA
:1028900067A26421EB20FFF721FB002010214FF6F7
:1028A000FF724FF47843CDE9002102904AA26421DF
:1028B00040F20910FFF7FCFB002010214FF6FF72D9
:1028C0004FF47843CDE90132CDE9031005204E4B9A
:1028D0004633594A6421009040F21310FFF709FC77
:1028E000002010214FF6FF724FF47843CDE900210C
:1028F000029052A278210520FFF7F0FA0020102163
:102900004FF6FF724FF47843CDE90021029032A2D6
:1029100078212320FFF7CCFB002010214FF6FF7217
:102920004FF47843CDE9002102903E4A14327821D9
:102930002D20FFF7BDFB002010214FF6FF724FF452
:102940007843CDE9002102903EA278210846FFF7A6
:10295000C5FA002010214FF6FF724FF47843CDE9FD
:10296000002102901CA278219620FFF7A1FB0020F5
:1029700010214FF6FF724FF47843CDE90021029009
:10298000284A50327821A520FFF792FB0020102121
:102990004FF6FF724FF47843CDE9002102902BA24D
:1029A0008C21EB20FFF79AFA002010214FF6FF72DE
:1029B0004FF47843CDE90021029007A28C2140F228
:1029C0000910FFF775FB102044E0000034470000B9
:1029D000D0C5BAC5000000003A000000B8290020A8
:1029E000DC1A002064426D0054230020C7BF0000A1
:1029F000D6D00000C8F50000CEDE0000101A00207E
:102A0000BAB8BFDA000000009E280020E4120020BF
:102A1000BAB8B9A400000000B0130020B5E7D1B9DE
:102A200000000000EE240020B5E7C1F70000000020
:102A3000BAB8B2E3000000003C230020CBBFCBD9E2
:102A400000000000BAB8CBD900000000B2E3CEC24B
:102A5000000000004FF6FF714FF47842CDE90021ED
:102A60000290FD48B0F8000280B2032302468C2198
:102A700004904FF48770FFF766FC002010214FF69A
:102A8000FF724FF47843CDE900210290F3A28C212C
:102A90000520FFF723FA002010214FF6FF724FF4B4
:102AA0007843CDE900210290AFF2D4028C2123209B
:102AB000FFF7FEFA002010214FF6FF724FF4784323
:102AC000CDE900210290E74A8C212D20FFF7F0FA92
:102AD000002010214FF6FF724FF47843CDE900211A
:102AE0000290E1A28C217820FFF7F8F90020102154
:102AF0004FF6FF724FF47843CDE900210290AFF218
:102B000028128C219620FFF7D3FA002010214FF6CF
:102B1000FF724FF47843CDE900210290D14A143A74
:102B20008C21A520FFF7C4FA002010214FF6FF7278
:102B30004FF47843CDE900210290CDA27821EB201B
:102B4000FFF7CCF9002010214FF6FF724FF47843C5
:102B5000CDE900210290AFF28012782140F20910F5
:102B6000FFF7A6FA002010214FF6FF724FF47843CA
:102B7000CDE90132CDE903100A20BF4BB94A643ACE
:102B80007821009040F21310FFF7B3FA00201021D3
:102B90004FF6FF724FF47843CDE900210290B7A2BF
:102BA000A021C820FFF79AF9002010214FF6FF72EC
:102BB0004FF47843CDE900210290AFF2E412A02156
:102BC000E620FFF775FA002010214FF6FF724FF450
:102BD0007843CDE90132CDE903101420A94BAA4A6C
:102BE000A0210090F520FFF784FA002010214FF675
:102BF000FF724FF47843CDE900210290A3A2A021F7
:102C00000520FFF76BF9002010214FF6FF724FF4FB
:102C10007843CDE900210290AFF24422A021232085
:102C2000FFF746FA002010214FF6FF724FF4784369
:102C3000CDE90132CDE903101420924B503B954A67
:102C4000A02100902D20FFF754FA002010214FF60C
:102C5000FF724FF47843CDE9002102908EA2B42197
:102C60000520FFF73BF9002010214FF6FF724FF4CB
:102C70007843CDE900210290AFF2A422B4212320B1
:102C8000FFF716FA002010214FF6FF724FF4784339
:102C9000CDE90132CDE9031014207A4B3C3B804A48
:102CA000B42100902D20FFF724FA002010214FF6C8
:102CB000FF724FF47843CDE90021029079A2C82138
:102CC0000520FFF70BF9002010214FF6FF724FF49B
:102CD0007843CDE900210290AFF20432C8212320CD
:102CE000FFF7E6F9FFF716FDFFF768FC002005B0D7
:102CF00000BD00B585B0002010214FF6FF721346CD
:102D0000CDE90021029069A2C8212D20FFF7D0F95A
:102D100010226FA1724802F040F9A8B900201021DA
:102D20004FF6FF725311CDE9002102906DA2C82128
:102D30002D20FFF7D3F8282269494F48923002F03E
:102D400058F9012005B000BD102269A1644802F0C5
:102D500024F9A0B9002010214FF6FF725311CDE9DC
:102D60000021029066A2C8212D20FFF7B7F8282283
:102D70005B494148923002F03CF90220E2E70F2221
:102D800062A1574802F009F9A0B9002010214FF6BE
:102D9000FF725311CDE90021029060A2C8212D20BD
:102DA000FFF79CF828224E493348923002F021F96F
:102DB0000320C7E710225DA1494802F0EEF8A0B950
:102DC000002010214FF6FF725311CDE9002102902F
:102DD0005AA2C8212D20FFF781F828224049264811
:102DE000923002F006F90420ACE7102257A13C48CB
:102DF00002F0D3F8A0B9002010214FF6FF72531152
:102E0000CDE90021029055A2C8212D20FFF766F8D8
:102E1000282233491848923002F0EBF8052091E758
:102E2000112256A12E4802F0B8F8A0B900201021B6
:102E30004FF6FF725311CDE90021029054A2C82130
:102E40002D20FFF74BF8282225490B48923002F03D
:102E5000D0F8062076E7A7E054230020CAAAB6C817
:102E6000000000002A250020B0E5CEC200000000CE
:102E7000CEBBD6C300000000DA280020B9A4D2D50A
:102E800000000000D627002078180020BBFAD7E900
:102E90000000000048150020B9E6B3CC0000000097
:102EA00014160020B1A8BEAF00000000414141410E
:102EB0004141414141414141414141414141414102
:102EC00041414141414141414141414141000000B5
:102ED00043757272656E74546F6F4869676821003C
:102EE000A8190020B5E7C1F7B9FDB8DFA3A100001C
:102EF000566F6C74616765546F6F4869676821002D
:102F0000B5E7D1B9B9FDB8DFA3A100005353737081
:102F1000656564546F6F4C6F77210000CBCDCBBFDC
:102F2000CBD9B6C8B9FDB5CDA3A10000484A73708E
:102F3000656564546F6F486967682100BAB8BDD38E
:102F4000CBD9B6C8B9FDB8DFA3A10000426F785451
:102F5000656D70546F6F486967682100B0E5D4D81B
:102F6000CEC2B6C8B9FDB8DFA3A1A3A1A3A1A3A1F6
:102F7000A3A1A3A1A3A1A3A10000000048756D69AE
:102F800064697479546F6F486967682100000000B4
:102F9000B0E5D4D8CAAAB6C8B9FDB8DFA3A120202D
:102FA00020202020200000000E22FBA1FE4801F07E
:102FB000F4FF98B9002010214FF6FF725311CDE9AC
:102FC00000210290F9A2C8212D20FEF787FF2822B8
:102FD000F549FA4802F00DF80720B3E61122F8A1EE
:102FE000F14801F0DAFF98B9002010214FF6FF7286
:102FF0005311CDE900210290F6A2C8212D20FEF741
:103000006DFF2822E849ED4801F0F3FF082099E61A
:10301000002010214FF6FF725311CDE90132CDE9A6
:1030200003102820E54BE04AC82100902D20FFF72F
:1030300060F8092086E610B586B001F05EFD044612
:10304000002010214FF6FF724FF47843CDE90021A4
:103050000290E4A228210520FEF740FF0020102165
:103060004FF6FF724FF47843CDE900210290AFF2A2
:10307000986228212320FFF71BF8002010214FF62B
:10308000FF724FF47843CDE90132CDE903101420EB
:10309000D64BD74A282100902D20FFF72AF8002090
:1030A00010214FF6FF724FF47843CDE900210290D2
:1030B000D0A214210520FEF711FF002010214FF6A9
:1030C000FF724FF47843CDE900210290AFF2F8622D
:1030D00014212320FEF7ECFF002010214FF6FF7291
:1030E0004FF47843CDE90132CDE903101E20BF4BE8
:1030F0005A3BC24A142100902D20FEF7FAFF00200F
:1031000010214FF6FF724FF47843CDE90021029071
:10311000BBA23C210520FEF7E1FE002010214FF666
:10312000FF724FF47843CDE900210290AFF258725C
:103130003C212320FEF7BCFF002010214FF6FF7238
:103140004FF47843CDE90132CDE903101420A74BA9
:10315000143BAD4A3C2100902D20FEF7CAFF002011
:1031600010214FF6FF724FF47843CDE90021029011
:10317000A6A250210520FEF79BFF002010214FF64C
:10318000FF724FF47843CDE900210290AFF2B8729C
:1031900050213720FEF78CFF002010214FF6FF72E0
:1031A0004FF47843CDE90132CDE903100520994B66
:1031B000994A502100904120FEF79BFF00201021EA
:1031C0004FF6FF724FF47843CDE90021029093A2AD
:1031D00050216920FEF76CFF002010214FF6FF728E
:1031E0004FF47843CDE900210290AFF6140250214C
:1031F0009B20FEF75DFF002010214FF6FF724FF479
:103200007843CDE90132CDE903100520814B5B1DE8
:10321000814A521D50210090A520FEF76AFF002030
:1032200010214FF6FF724FF47843CDE90021029050
:103230007CA25021CD20FEF73BFF002010214FF64D
:10324000FF724FF47843CDE900210290AFF6780287
:103250005021FF20FEF72CFF002010214FF6FF72B7
:103260004FF47843CDE90132CDE903100520694BD5
:103270000A33694A0A325021009040F20910FEF7E1
:1032800038FF002010214FF6FF724FF47843CDE94C
:103290000021029065A264210520FEF71FFE002098
:1032A00010214FF6FF724FF47843CDE900210290D0
:1032B000AFF6DC0264216920FEF7FAFE012C04D08F
:1032C000022C11D0032C2DD11DE0002010214FF62F
:1032D000FF724FF47843CDE90021029057A2642198
:1032E0007320FEF7FBFD2CE0002010214FF6FF724B
:1032F0004FF47843CDE90021029055A26421732058
:10330000FEF7ECFD1DE0002010214FF6FF724FF498
:103310007843CDE90021029052A264217320FEF788
:10332000DDFD0EE0002010214FF6FF724FF47843D0
:10333000CDE90021029050A264217320FEF7CEFD5A
:1033400000BF00BFFFF73AF9FFF7E4F9002006B02D
:1033500010BD0EB5002010214C4A1423CDE90021E8
:1033600002901E2264210520FFF7BAF800201021E8
:103370004FF6FF724FF47843CDE900210290444AA2
:1033800014210520FEF794FE002010214FF6FF7255
:103390004FF478437EE000004C6179657254656DAE
:1033A0007045727221000000A8190020BAB8B2E37B
:1033B000CEC2B6C8B4EDCEF3A3A100006C290020A4
:1033C0004C6179657254656D70546F6F4C6F7721E5
:1033D00000000000BAB8B2E3CEC2B6C8B9FDB5CDA0
:1033E000A3A10000C9E8B1B800000000C227002076
:1033F000AC170020CFEEC4BF000000007C140020FA
:10340000BAB8BBFA00000000E0160020416E676CFD
:1034100065580000E42C0020A42C0020416E676C4D
:1034200065590000416E676C655A0000B5B1C7B0C0
:10343000BAB8BDD3D7F8B1EA00000000B4F3B8C5FC
:10344000D4DAD2BBB5E3D6D3B7BDCFF200000000CB
:10345000B4F3B8C5D4DAC8FDB5E3D6D3B7BDCFF25F
:1034600000000000B4F3B8C5D4DAC1F9B5E3D6D38F
:10347000B7BDCFF200000000B7C7D5FDB3A3BAB8FF
:10348000BDD3D7F8B1EAB5E300000000741C0020FA
:10349000A81B0020CDE90021029089A22821052047
:1034A000FEF706FE002010214FF6FF724FF478431E
:1034B000CDE900210290844A28213220FEF7F8FD50
:1034C000002010214FF6FF724FF47843CDE9002120
:1034D00002907EA23C210520FEF7EAFD002010218B
:1034E0004FF6FF724FF47843CDE900210290794AFC
:1034F0003C213220FEF7DCFD002010214FF6FF7248
:103500004FF47843CDE90021029073A250210520A9
:10351000FEF7CEFD002010214FF6FF724FF47843E6
:10352000CDE9002102906E4A50213220FEF7C0FD05
:10353000002010214FF6FF724FF47843CDE90021AF
:103540000290684AA0210520FEF7B2FD002010215C
:103550004FF6FF724FF47843CDE900210290624AA2
:10356000B4210520FEF7A4FDFFF728F8FFF7D2F8F5
:103570000EBD0EB55D482E23F022142100902820A8
:10358000FEF77BFF002010214FF6FF724FF47843C7
:10359000CDE90021029056A264214620FEF79EFC50
:1035A000002010214FF6FF724FF47843CDE900213F
:1035B000029056A282214620FEF790FC00201021A6
:1035C0004FF6FF724FF47843CDE90021029054A2E8
:1035D0008221D920FEF76CFD002010214FF6FF72EA
:1035E0004FF47843CDE9002102904EA28221F720CA
:1035F000FEF774FC002010214FF6FF724FF4784361
:10360000CDE90021029048A2A0214B20FEF750FDF9
:10361000002010214FF6FF724FF47843CDE90021CE
:10362000029047A2BE214420FEF742FD0020102157
:103630004FF6FF724FF47843CDE90021029047A284
:10364000DC216E20FEF734FD00200EBD08B5484891
:10365000406801280CD14FF6FF70F0234FF4A072A0
:10366000002100900846FEF7A7F800204049486076
:1036700008BD01203E494860704710B53C480068CD
:10368000012806D0022807D0032808D004280CD12E
:1036900008E0FFF74FF809E0FFF7CDFC06E0FFF781
:1036A00058FE03E0FFF765FF00E000BF00BF002009
:1036B00010BD10B52E48406808B9FFF7DEFF10BDF9
:1036C000494D45493A000000D81E00204C4253782D
:1036D0003A000000401D00204C4253793A0000009F
:1036E0000C1E0020A41F002070200020229B000838
:1036F000B3C9B6BCD0DCB9C8BCD3CAC0B5E7C6F73D
:10370000D3D0CFDEB9ABCBBE00000000B3C9B6BC8E
:10371000CAD0B8DFD0C2C7F8CCECB2CAC2B700007A
:1037200031303000BAC50000687474703A2F2F77BA
:1037300077772E78696F6E6767752E636F6D0000FF
:10374000452D6D61696C3A77656C64657240786986
:103750006F6E6767752E636F6D0000002B38362023
:103760003430302038303830203636330000000016
:103770000C00002010B56548806940F004006349E2
:1037800088616348006820F07060614908600846FD
:10379000006840F0407008603C215E4801F090FCF9
:1037A0005D485C49086101465A484162816310BD29
:1037B0002DE9F04104460E4617461D4600F015FA65
:1037C0008046002004EB8401524A02EB81018860AC
:1037D00004EB8400114621F8206004EB840001EB27
:1037E000800047803DB94FF0FF3004EB840102EBCD
:1037F0008101C86007E005EB080004EB8401454A3D
:1038000002EB8101C860032004EB8401414A02EB12
:1038100081010871BDE8F08170B500F0E6F9054658
:1038200000246BE004EB84003A4901EB8000C0689F
:10383000A8420CD2002004EB8401364A02EB81013D
:10384000087104EB840102EB81010969086004EB53
:103850008400304901EB80000079E8B3022802D0EF
:10386000032848D122E004EB84002A4901EB8000C0
:103870008068A84219D2032004EB8401254A02EB98
:103880008101087104EB8400114601EB800040883F
:10389000284404EB840102EB81018860002004EBE2
:1038A000840102EB81010969086024E004EB8400D3
:1038B000184901EB80008068A8421AD2022004EB6C
:1038C0008401144A02EB8101087104EB8400114663
:1038D00031F82000284400E00CE004EB840102EB06
:1038E00081018860012004EB840102EB81010969F8
:1038F000086000E000BF00BF601CC4B2032C91DB75
:1039000070BD10B5FFF788FF10BD00000010024029
:1039100000080140A01000209801214210B541F696
:103920001F410920FCF704FF10BDEE480188491C27
:10393000028861F3090202800188C1F30901B1F52F
:103940007A7F45DB01886FF309010180018801223C
:1039500002EB9121028861F38F22028001883C22D0
:10396000B2EB912F34DC018821F47C4101800168A5
:10397000090C491C026861F3154202600168C1F339
:1039800005413C2924DB016821F47C1101600168B8
:10399000890D491C026861F39A5202600168C1F303
:1039A0008451182914DB016821F0F86101608188D5
:1039B000491C426861F30A0242608188C1F30A012E
:1039C00040F2FF72914203DB41686FF30A014160EC
:1039D000704710B500F0F8FF00F046FFFFF791FFC9
:1039E00010BD30B502460C460021BF4800EB441123
:1039F0000AB9002030BD087E062801D30020F9E76F
:103A0000002312E051F8230000B10CE002201073F3
:103A10005068CD692844106041F82320087E401C7E
:103A200008760120E6E7581CC3B2062BEAD3002033
:103A3000E0E710B502460C460023AB4800EB441308
:103A40000AB9002010BD002110E053F82100904277
:103A500000D009E0002043F8210001201073187EF7
:103A6000401E18760120EDE7481CC1B20629ECD3B0
:103A70000020E7E770B504460D460CB9002070BD84
:103A8000207BB8B101280ED0022802D0032813D120
:103A90000AE029462046FFF7CCFF29462046FFF7DB
:103AA000A0FF0120EBE700BF29462046FFF799FF62
:103AB0000120E4E70020E2E70020E0E72DE9F04103
:103AC00004460D4616461F46DDF8188014B900203E
:103AD000BDE8F0810020206065602661A7600120BC
:103AE000207341462046FFF7C5FF0120F0E710B5DF
:103AF00000F06FFF00F0B9FE00F0B2FE10BD10B58F
:103B000000F061FF10BD704710B500F063FF10BDFD
:103B100010B500F057FF00F08DFE10BD704710B5D6
:103B200000F07CFE10BD002016E0002107E000221E
:103B30006D4B03EB401343F821204A1CD1B20629F8
:103B4000F5D30022684B03EB40131A76664B03EB68
:103B50004013DA61421CD0B20328E6DB704708B597
:103B6000FFF7E1FF0020614B022201210090604835
:103B7000FFF7A4FF00205F4B0222642100905E4803
:103B8000FFF79CFF01205D4B02224FF47A710090F9
:103B90005B48FFF793FF01205A4B0222052100905A
:103BA0005948FFF78BFF0120584B022264210090F7
:103BB0005748FFF783FF0120564B02220146009031
:103BC0005548FFF77BFF0120544B022240F24D1174
:103BD00000905348FFF772FF0120524B02220A2146
:103BE00000905148FFF76AFF08BD504800687047D1
:103BF0003C49016070472DE9F04106460F4600241C
:103C0000394800EB47143068E06100252BE054F898
:103C1000250000B925E054F82510E06909688842BC
:103C20001ED354F82500806818B154F82510886810
:103C3000804754F825000069022808D154F825105F
:103C4000E0694968084454F82510086008E003203A
:103C500054F82510087354F825003946FFF7E9FE9B
:103C600000BF681CC5B2062DD1D3BDE8F08110B5E8
:103C70002E480068401C2D49086000212B48FFF7A2
:103C8000BAFFFFF752FE10BD10B501212748FFF71C
:103C9000B2FF10BD26480068401C254908607047E7
:103CA00000B970470021017381600160016100BFAC
:103CB000F7E710B504460CB9002010BD2046FFF709
:103CC000EFFF00240120F8E770B504460D460CB95B
:103CD000002070BD29462046FFF7ABFEF9E770478C
:103CE0007047704714000020DC1000201F3B0008C4
:103CF0003C1100201D3B000850110020113B000822
:103D0000A0110020093B0008B4110020073B000867
:103D1000C8110020FF3A0008DC110020EF3A00082B
:103D2000F0110020D3390008041200201C000020EC
:103D30002400002008B50920FCF7A5FB4820FCF76B
:103D400037FA4FF416514820FCF745FC41F61F4165
:103D50000920FCF7EDFC0020092307220821009030
:103D60000120FCF744FFFDF7A3FAFFF7F8FE00F08F
:103D700030F9FFF7FFFCFDF732FC4FF6FF70F02340
:103D80004FF4A072002100900846FDF715FD0E4883
:103D90002E23F0225A2100902820FEF76EFB4FF6CA
:103DA000FF70FCF721FA4FF6FF70F0234FF4A0727A
:103DB000002100900846FDF7FFFC01200349086040
:103DC00001E0FFF761FFFCE7229B00080C000020E8
:103DD000F748C0787047FEB5044600F0DFFD0546A1
:103DE000FFF703FF06460020009001902088ADF801
:103DF0000A0080208DF80000C6F387208DF80100AE
:103E0000002D01DD002000E082208DF80400082054
:103E10008DF808006846FDF780F9FEBD13B584B043
:103E20000C46E348C078012816D1E2480088ADF876
:103E30000E0030208DF80400BDF81000ADF805002C
:103E40009DF812008DF80700029408208DF80C00F0
:103E500001A8FDF762F900BF06B010BDFEB504462B
:103E60000E461546D248C078012817D1D14800889F
:103E7000ADF80A0031208DF80000E8B28DF801009D
:103E8000224631460DF1020001F0B3F8A01CC0B289
:103E90008DF808006846FDF740F900BFFEBD2DE92A
:103EA000F04104460F464022C349C448FCF782FD56
:103EB000082F04D1C048D0F80950D0F80D6018215F
:103EC000BF4801F0FDF8BE48B4F801108181E178E7
:103ED0008173616841604FF08050B949486108467C
:103EE000C068A84203D108464068B04204D0B44834
:103EF000C068B0F5C84F06D91821B14801F0E0F804
:103F0000EE20BDE8F0814FF44851AE48FCF7D2FDF9
:103F1000AA20F6E72DE9F84F05460C461746002083
:103F2000009095F80190A648007A48454FD10226A6
:103F300007E0A3484069A95D401AA1494861701C87
:103F4000C6B2A642F5DBA01EC4B2082F04D19C481D
:103F500000699C4900EB0108A24604EBDA704210AC
:103F6000A91C4046FCF7F1FD95480069204494499E
:103F7000086108460069C968884221D390484069B1
:103F80008F494968884219D147F288700090082FFC
:103F90000CD189488A49C968C0F80910884949681C
:103FA000C0F80D10BDF80010A0F811104022824991
:103FB0008248FCF710FDAA20BDE8F88FEE20FBE751
:103FC0007F488068401C7E498860AA20F4E7EE2084
:103FD000F2E70EB57C480088ADF80A0001208DF8A4
:103FE000000002208DF808006846FDF796F80EBD27
:103FF00010B5002075490860FFF7EBFF10BD10B544
:104000006B480079401C6A4908710846007903280A
:1040100005DD0020C87020216C4801F051F86B4884
:10402000006920B9002069490860FFF7D2FF10BD80
:1040300000205F4908710120C8707047FEB5054631
:104040000E4614462078C0F3C3072088C10961F3E7
:10405000C6002080208867F3CA1020805448C078AA
:10406000012810D12088ADF80A0081208DF80000C9
:104070008DF801508DF8026003208DF80800684625
:10408000FDF74BF800BFFEBD2DE9FE4305460E4689
:1040900017461C462078C0F3C3082088C10961F385
:1040A000C6002080208868F3CA1020804048C0786D
:1040B000012812D12088ADF80A0081208DF8000077
:1040C0008DF801508DF802608DF8037004208DF892
:1040D00008006846FDF721F800BFBDE8FE830EB575
:1040E0003A480068D8B138480088ADF80A00502036
:1040F0008DF8000010208DF80100344800788DF80C
:104100000200324800798DF8030030488068019041
:1041100008208DF808006846FCF7FFFF00BF0EBDC1
:1041200010B52A484069012801D1FFF7D8FF0020C7
:1041300010BD002025494861704701468878234A10
:104140001060C878506010464A68826001201F4A9B
:1041500010610020704701461D48D1F80220C0F8C8
:10416000C221CA88A0F8C62100207047014618481D
:10417000D1F80220C0F8D621CA88A0F8DA210020A0
:10418000704701461248D1F80220C0F87221CA884F
:10419000A0F876210020704701460D48D1F8022092
:1041A000C0F89A21CA88A0F89E210020704700001C
:1041B000340000209A5B0008142C002000DC00086A
:1041C0005421002000780008A05B00083423002060
:1041D000542300200146FA48D1F80220C0F8862175
:1041E000CA88A0F88A21002070470146F448D1F817
:1041F0000220C0F8AE21CA88A0F8B2210020704782
:104200000146EF48D1F80220C0F8EA21CA88A0F898
:10421000EE210020704701468878E94AC2F8000282
:10422000002070473EB50446A078AA2839D1E0782E
:1042300001281BD1002010214FF6FF721346CDE953
:1042400000210290DFA2A0212320FDF731FF0020F2
:1042500010214FF6FF724FF47843CDE90021029010
:10426000DDA2A0212320FDF723FF1AE0002010216A
:104270004FF6FF721346CDE900210290D1A2A02192
:104280002320FDF715FF002010214FF6FF724FF499
:104290007843CDE900210290D3A2A0212320FDF78D
:1042A00007FF00203EBD0146D24890F8CA005528BD
:1042B00006D1D04808600020CE4A82F8CA00704774
:1042C0000120FCE72DE9F04106460F4690461C46CA
:1042D000069D552C05D0E8194246314600F089FE6E
:1042E00003E085F8CA40A5F8C880BDE8F08170B544
:1042F00005460E4614461821204600F0E1FE688867
:10430000A081686860604FF0805060610A20FBF710
:104310006BFFAA2070BD2DE9F84F05468A4614466A
:1043200098462E7A95F80290207A484530D1032796
:1043300005E0E95D6069401A6061781CC7B2B74268
:10434000F7DBF01EC6B2CDF80080217C0023324698
:10435000E81CFFF7B7FF206930442061D4E903105F
:10436000884210D36168606988420AD1CDF8008024
:10437000227CD1B25523E81CFFF7A4FFAA20BDE898
:10438000F88FEE20FBE7A068401CA060AA20F6E7AB
:10439000EE20F4E77FB50024002500200090019076
:1043A00002906846FCF7C4FE10B1002004B070BD56
:1043B000BDF80A0003909DF801609DF80000812877
:1043C00016D00CDC422840D004DC012826D0052879
:1043D0006FD124E0502876D08028F9D120E09428AD
:1043E00069D0972827D0A0282ED0B028F0D12DE072
:1043F0009DF80100012802D050280DD103E00120D2
:104400007D49487008E09DF80200102802D1FFF7AE
:1044100090FE00BF00BF00BF00BFECE1EBE1EAE1AE
:10442000FFF706FE9DF80800421E0DF101017348DA
:1044300000F0DFFDDFE19DF80800421E0DF10101F3
:104440006F4800F0D6FDD6E1D5E1D4E19DF801003A
:1044500015281AD008DC11281BD012281DD01328CB
:104460000BD014282DD10CE016281AD017281CD0F8
:10447000182821D03D2824D122E06846FFF76BFEA2
:104480001FE06846FFF772FE1BE06846FFF779FE03
:1044900017E06846FFF780FE13E06846FFF79AFED4
:1044A0000FE06846FFF7A1FE0BE06846FFF7A8FEA5
:1044B00007E09FE107E099E16846FFF7ACFE00E006
:1044C00000BF00BF00BF9DF8010010382D2823D287
:1044D000DFE800F01722222222222222222A233978
:1044E0003248415750665FAE6EBDB6CCC5FBF4F1A5
:1044F000F0EFEEEDECEBEAE9E8E7E6E5E4E3E2E134
:10450000E0006846FFF719FE9DF801109DF80000D5
:1045100003ABAA22FFF7B8FD66E13A4A3146684686
:10452000FFF7E5FE05465FE1374B364A3146684600
:10453000FFF7F1FE054657E1344A31466846FFF77A
:10454000D6FE054650E1324B304A31466846FFF709
:10455000E2FE054648E12F4A31466846FFF7C7FEAE
:10456000054641E12C4B2B4A31466846FFF7D3FE06
:10457000054639E1294A31466846FFF7B8FE054647
:1045800032E1274B254A31466846FFF7C4FE05460F
:104590002AE1244A31466846FFF7A9FE054623E191
:1045A000214B204A31466846FFF7B5FE05461BE120
:1045B0001E4A31466846FFF79AFE054614E10000A0
:1045C0005423002041414141414141414141414148
:1045D00041414141410000005263764E657753638B
:1045E000616E4461746100005263765363616E448E
:1045F0006174610018120020BC2B002028000020EC
:104600002E0000206C210020E412002084210020D4
:10461000B0130020CC21002014160020E42100203B
:10462000E0160020FC210020AC17002044220020CE
:104630008E4B8F4A31466846FFF76DFE0546D3E044
:104640008C4A31466846FFF752FE0546CCE08A4B5D
:10465000884A31466846FFF75EFE0546C4E0874A51
:1046600031466846FFF743FE0546BDE0844B834A6A
:1046700031466846FFF74FFE0546804800697F498E
:10468000C968884205D164227D4901F1640000F0C7
:10469000B0FCA9E099E09FE088E08EE077E07DE063
:1046A00066E06CE055E05BE044E04AE033E039E08E
:1046B00022E028E011E017E000E006E0714A314610
:1046C0006846FFF714FE05468EE06F4B6D4A314693
:1046D0006846FFF720FE054686E06C4A314668468C
:1046E000FFF705FE05467FE0694B684A314668469C
:1046F000FFF711FE054677E0664A31466846FFF748
:10470000F6FD054670E0644B624A31466846FFF7A5
:1047100002FE054668E0614A31466846FFF7E7FD5C
:10472000054661E05E4B5D4A31466846FFF7F3FDA2
:10473000054659E05B4A31466846FFF7D8FD054615
:1047400052E0594B574A31466846FFF7E4FD0546AB
:104750004AE0564A31466846FFF7C9FD054643E040
:10476000534B524A31466846FFF7D5FD05463BE0BC
:10477000504A31466846FFF7BAFD054634E04E4BD5
:104780004C4A31466846FFF7C6FD05462CE04B4AC9
:1047900031466846FFF7ABFD054625E0484B474AE2
:1047A00031466846FFF7B7FD05461DE0454A3146EC
:1047B0006846FFF79CFD054616E0434B414A3146EB
:1047C0006846FFF7A8FD05460EE0404A31466846B8
:1047D000FFF78DFD054607E03D4B3C4A31466846F4
:1047E000FFF799FD054600BF00BF04E0684600F0F2
:1047F0005AF900E000BF00BF2CB19DF8000003AAE9
:104800002146FFF71BFC3DB19DF801109DF800000B
:1048100003AB2A46FFF738FC0120C7E510B5FFF7C8
:10482000B9FDFCF790FCFCF727FDFFF779FC00F0E1
:1048300064F910BD10B5FFF7E2FB2648FFF7CBFA8D
:104840004FF47A73002259100220FEF7B1FFFEF7F1
:10485000FDFE21480068012801D1FEF74AFA10BD8B
:1048600010B5FEF726FF10BD70477047101A0020E4
:1048700044220020B4210020481500202C220020D2
:104880004419002014220020781800209C210020C8
:104890007C1400205C220020DC1A002074220020FE
:1048A000A81B00208C220020741C0020BC220020A9
:1048B000401D0020D42200200C1E0020EC220020ED
:1048C000D81E002004230020A41F00201C23002049
:1048D00070200020A05B00080C00002001203E4951
:1048E000C870704738B5002000903C4C4AF6BB2099
:1048F00000900020384948726420887201200870B6
:104900008021374800F0DCFB3548BDF800100180FD
:104910003149497A81713049897AC1712E490978C2
:104920004177C0F80240402201462E48FCF753F878
:1049300038BD10B502460B464FF48034002103E029
:10494000505C241A481CC1B29942F9DBA0B210BDD8
:1049500078B50446257860190088ADF8000029462E
:104960002046FFF7E6FF06460098B04201D101203D
:1049700078BD0020FCE71C4A12680A4402607047B8
:104980001548806918490968884206D2124880692A
:1049900018B1002010490877886170470E484078A8
:1049A00070470D488078401C0B4988700846807815
:1049B000032802DD002088704870704700200649F7
:1049C000887070477047704700B5FFF7D9FF00BD8A
:1049D0007047704770470000BC2B002015CD5B0767
:1049E000142C002000DC00081C00002010B5044638
:1049F0000B469C4205DA191B514380310912591AA2
:104A000008E09C4205DDE11A514380310912194446
:104A100000E0194608B210BD10B5044620226149D5
:104A2000204600F0E6FA10BD10B5044620222146CB
:104A30005C4800F0DEFA10BDF0B58DB001460C46C2
:104A4000002C00DA494200200DE00A2591FBF5F622
:104A500005FB16153035EFB20546401C0DF8057004
:104A60000A2591FBF5F10029EFD1002C04DA2D275E
:104A70000546401C0DF8057000250DF80050002279
:104A8000401E09E01DF800301DF802500DF80050DE
:104A90000DF80230401E521C00EBD076B2EB660FD0
:104AA000F0DD0DB0F0BD10B588B004466846FFF7E4
:104AB000B3FF34F8010FADF80A006088ADF80C00C0
:104AC000A088641EADF80E00BDF90A2036A104A826
:104AD00000F0D2F9BDF90C2033A10DF1150000F062
:104AE000CBF9BDF90E2030A10DF11A0000F0C4F988
:104AF0006846FFF799FF08B010BD2A48B0F90A00D0
:104B000010F1140F10DB2748B0F90A0028280BDC3D
:104B10002448B0F90E00012806DB2248B0F90E0047
:104B20003C2801DC012070471E48B0F90A0010F152
:104B3000140F1CDB1B48B0F90A00462817DC194883
:104B4000B0F90E0010F15A0F05DB1648B0F90E004F
:104B500010F13C0F09DD1348B0F90E00322806DBD6
:104B60001048B0F90E005A2801DC0220DBE70D489E
:104B7000B0F90A0010F1140F11DB0A48B0F90A006D
:104B800023280CDC0748B0F90E0010F1320F06DBC9
:104B90000448B0F90E00002801DA0320C3E7002022
:104BA000C1E70000942C00202564000009488047DC
:104BB00009480047FEE7FEE7FEE7FEE7FEE7FEE7FF
:104BC000FEE7FEE7FEE7FEE704480549054A064B17
:104BD00070470000CB4C0008ED000008582D002065
:104BE00058370020582F0020582F00200CB50020E7
:104BF000019000906C48006840F480306A49086079
:104C000000BF6948006800F4003000900198401C23
:104C10000190009818B90198B0F5A06FF1D16248E1
:104C2000006800F4003010B10120009001E0002085
:104C300000900098012843D15C48006840F01000C3
:104C40005A4908600846006820F0030008600846DA
:104C5000006840F0020008605348406852494860CC
:104C60000846406848600846406840F480604860F4
:104C70000846406820F47C1048600846406840F4CC
:104C8000E81048600846006840F08070086000BF87
:104C90004548006800F000700028F9D0424840689C
:104CA00020F00300404948600846406840F0020098
:104CB000486000BF3C48406800F00C000828F9D16B
:104CC0000CBD10B5FFF792FF10BD10B53648006857
:104CD00040F0010034490860084640683449084003
:104CE0003149486008460068324908402E4908604A
:104CF0000846006820F4802008600846406820F4D8
:104D0000FE0048604FF41F008860FFF7DAFF4FF0A5
:104D100000602949086010BD10B500210020002264
:104D2000214B5B6803F00C0121B1042906D008294E
:104D300028D107E0214B224C236027E01F4B204C59
:104D4000236023E0184B5B6803F47010164B5B681C
:104D500003F48032022303EB904022B9194B434302
:104D6000174C23600DE0104B5B6803F4003323B154
:104D7000144B4343124C236003E0104B4343104C4D
:104D8000236003E00D4B0E4C236000BF00BF064BB9
:104D90005B68C3F303130C4CE15C094B1B68CB400D
:104DA000074C236010BD00000010024000200240AC
:104DB0000000FFF8FFFFF6FE08ED00E000127A00A9
:104DC0004000002000093D004400002070B5064668
:104DD00000F0A0F9056806F10B0020F00704B442CA
:104DE0009CBF002070BD2B466A68BAB11068A04213
:104DF00010D304F1080188423CBF5068586007D3C3
:104E00005168101941601168091B016058601460F5
:104E1000101D70BD13465268002AE7D1214628466E
:104E200000F084F90028DED170BD70B50446051F7E
:104E300000F070F90068002C14BF446870BD002CAD
:104E400018BFAC423CBF20466468F8D301680A181A
:104E5000AA4218BF456003D12A6805461144016083
:104E600028684119A1421CBF6C6070BD616869600F
:104E700021680844286070BD0FB41CB5074B06AA12
:104E80007B4469460090059800F0F9F900206946D6
:104E900000F008FA1CBC5DF814FB000021040000BF
:104EA0002DE9F0410E460446002020622046E168CC
:104EB000884730B3252805D0D4E901219047206ADE
:104EC000401CF2E7E168204600278847050018D01B
:104ED000A5F14100192802D820354FF40067324669
:104EE000294620462760FBF73BF940B1012804D052
:104EF000F61D26F007060836D8E7361DD6E7284601
:104F0000DAE7206ABDE8F0812DE9F0410646002489
:104F100010687529314616A510D0AFF3008000281F
:104F200002DA404213A507E031688A0701D512A5CD
:104F300002E0490704D511A5012401E0AFF3008088
:104F400000210A2206F1240709E0B0FBF2FCB0FBC5
:104F5000F2F302FB1C00303078541846491C00283C
:104F6000F3D123462A463046BDE8F04100F028B987
:104F7000000000002D0000002B00000020000000B9
:104F800070B5064600F0CAF80468054630460A22A5
:104F9000002100F08CF92C6070BD40EA010310B5CF
:104FA0009B070FD1042A0DD310C808C9121F9C42B9
:104FB000F8D020BA19BA884201D9012010BD4FF0AB
:104FC000FF3010BD1AB1D30703D0521C07E00020F8
:104FD00010BD10F8013B11F8014B1B1B07D110F855
:104FE000013B11F8014B1B1B01D1921EF1D1184658
:104FF00010BD032A40F2308010F0030C00F0158041
:1050000011F8013BBCF1020F624498BF11F801CBCB
:1050100000F8013B38BF11F8013BA2F1040298BF30
:1050200000F801CB38BF00F8013B11F0030300F09A
:105030007681083AC0F0088051F8043B083A51F8EC
:1050400004CBA0E80810F5E7121D5CBF51F8043B43
:1050500040F8043BAFF30080D20724BF11F8013BB6
:1050600011F801CB48BF11F8012B24BF00F8013B18
:1050700000F801CB48BF00F8012B70474FF0000249
:105080000429C0F0128010F0030C00F01B80CCF15A
:10509000040CBCF1020F18BF00F8012BA8BF20F8C8
:1050A000022BA1EB0C0100F00DB85FEAC17C24BF1C
:1050B00000F8012B00F8012B48BF00F8012B7047C6
:1050C0004FF0000200B5134694469646203922BFA1
:1050D000A0E80C50A0E80C50B1F12001BFF4F7AFEC
:1050E000090728BFA0E80C5048BF0CC05DF804EBCE
:1050F000890028BF40F8042B08BF704748BF20F83C
:10510000022B11F0804F18BF00F8012B7047704739
:105110007047704700487047FC2C002000487047DB
:10512000F42C0020704770477047704738B504462C
:105130000A4600206946AFF30080002808BF38BD4A
:1051400002460099204600F029F9012038BD0120CF
:1051500000F08DB9F8B5AFF30080054600200C468D
:10516000102000BF0646A819A0420DD93246694654
:105170000020AFF30080070008BF00F078F9009826
:10518000A04218BF0546C419FFF7C4FF05600746D3
:10519000F01D20F007004619284600F00AF8B44236
:1051A00008BFF8BDA21B31463868BDE8F84000F0E2
:1051B000F5B800210160C0E9011070471020704768
:1051C0002DE9F0470D4699469246044600F1240821
:1051D0000168880604D5E06921F01001216000E033
:1051E0000120A84201DD471B00E00027A1697A19D0
:1051F00002EB0900081AA0612078C00602D42046FC
:10520000AFF30080002608E0D4E901211AF8060077
:105210009047206A401C761C20624E45F4DB2078C3
:10522000C0060AD52046AFF3008006E0D4E901218C
:1052300030209047206A401C2062381EA7F10107E9
:10524000F4DC07E0D4E9012118F805009047206A52
:10525000401C2062281EA5F10105F3DC2046AFF3B7
:1052600000802078000602D50220BDE8F0870120EA
:10527000FBE7000001694A1C02610878704700B52D
:105280008FB0CDE901310021059105497944CDE97F
:10529000031011466846FFF703FE0FB000BD000083
:1052A000E5FFFFFF0A6802F8010B0A6070472DE96D
:1052B000F04791460F4680460446002614F8015BED
:1052C0002DB100F063F80068405DC007F6D12B2DCA
:1052D00002D02D2D18D0641E4A463946204600F0D3
:1052E00077F827B13968A14201D1C7F800804FF0A3
:1052F000020471050BD54042002803DDFFF70EFFC5
:105300000460A007BDE8F08746F48066E4E7002863
:10531000F8DAFFF703FF04606FF00040F2E710B522
:10532000203AC0F00B80B1E81850203AA0E818509D
:10533000B1E81850A0E81850BFF4F5AF5FEA027C5E
:1053400024BFB1E81850A0E8185044BF18C918C0CD
:10535000BDE810405FEA827C24BF51F8043B40F86E
:10536000043B08BF7047D20728BF31F8023B48BF53
:1053700011F8012B28BF20F8023B48BF00F8012B91
:105380007047000000487047F42C002010B500F072
:105390009BF8001D10BD00BF91020000034640684D
:1053A0008C46002818BF88423CBF03464068F8D3AB
:1053B00018681844884207D00CF1030020F0070059
:1053C000001D411A521A0146081D0A60FFF72DBD43
:1053D0002DE9F05F824615468B4600270AF101044D
:1053E000B9460078302801D09DB113E014F8010BC4
:1053F0000127782803D0582801D045B10AE00DB123
:10540000102D07D1002714F8010B102502E0082504
:1054100000E00A250026B0460EE005FB080005FB6B
:1054200006F101271FFA80F801EB1046B6F5803F20
:1054300000D3B94614F8010B294600F049F80028BA
:10544000EBDABBF1000F05D00FB1641E00E054464B
:10545000CBF80040B9F1000F06D0FFF75FFE022144
:105460000160C81EBDE8F09F48EA0640FAE710B5A3
:1054700000F04AF8BDE8104000F041B870477546AA
:10548000FFF780FFAE4605006946534620F007004F
:10549000854618B020B5FFF797FBBDE820404FF0D8
:1054A00000064FF000074FF000084FF0000B21F00E
:1054B0000701AC46ACE8C009ACE8C009ACE8C009DB
:1054C000ACE8C0098D46704700487047142D002095
:1054D0003A2800D2303820F02002412A01D3A2F12C
:1054E0003700884201D34FF0FF30704710B50446B3
:1054F000AFF300802046BDE81040FAF750BE002808
:1055000001D000F029B8704710B5012805D000215E
:1055100003A000F027F8012010BD09A1F8E7000062
:1055200053494752544D454D3A204F7574206F668C
:105530002068656170206D656D6F727900000000F4
:105540003A2048656170206D656D6F727920636FD8
:10555000727275707465640001491820ABBEFEE775
:105560002600020070B505460C460A2000E06D1CBE
:1055700000F052F835B128780028F8D102E0641C18
:1055800000F04AF814B120780028F8D1BDE8704046
:105590000A2000F041B800004FF0013C50F8042B05
:1055A00051F8043B9A4221D1A2EB0C03934313EA36
:1055B000CC1317D150F8042B51F8043B9A4215D163
:1055C000A2EB0C03934313EACC130BD150F8042B3A
:1055D00051F8043B9A4209D1A2EB0C03934313EA1E
:1055E000CC13DBD04FF00000704700BFD01A01BAD7
:1055F000B1FA81F101F0180122FA01F0CB40C1F1BA
:105600002001DBB2C0B2C01A2CFA01F3D11A9143C7
:1056100011EAC311E6D1704708B569468DF800005C
:105620000320ABBE08BD000010B500290AD00878E1
:10563000002807D005487844FFF7AEFF002801D0C6
:10564000002010BD0248784410BD00004E9B0000B1
:10565000469B000090EA010F48BF81F0004100F135
:105660002E82421A3CBF801A89184FEAD0524FF05E
:105670007F4C1CEA410FA2EBD15318BF9CEA026F8A
:1056800000F03B804FF0004C4CEA00204CEA012136
:1056900021FA03FC10EB0C0C1ED202F1FF325FEA80
:1056A0001C2040EBC25038BF70471CF07F0F4FEA00
:1056B000400C18BFBCF17F4F38BF7047C3F12003C7
:1056C000994008BF20F00100BCF17F4F38BF704700
:1056D000A0F1C04000F0DDB94FEA3C00000A40EB09
:1056E000C25028BF1CF0FF0F4FEA400CE6D018BF95
:1056F000BCF17F4F38BF7047EAE79CEA026F05D0E4
:1057000010EA5C0F08BF00F00040704710B500F0D1
:105710007AF900BF64FBBE3E4FF47F0C1CEAD01246
:105720001EBF1CEAD11392EA0C0F93EA0C0F00F093
:10573000858090EA010F48BF42F4807240F4000C6B
:1057400041F400002CF07F4120F07F4000B5814201
:10575000A2EB03020FF2081CACEB504EC0F10000AC
:105760009EF800E04FEA4E0E00FB0EFC38BF4900E9
:105770004FEA2C1C02F5FA020CFB0EF34FEACE1E88
:105780004FEA112C4FEAC1210EEB635E42EB22423D
:105790000EFB0CFC4FEA1C5300FB03114FEA112CCB
:1057A0004FEA01310EFB0CFC4FEADC4C00FB0C1104
:1057B000C14228BF09184CEB03335DF804EB10EB32
:1057C000410143EBC250B2F57C0F38BF704729D579
:1057D00012F0F00F1CBF00F1C04000F00040704715
:1057E000008182838485868788898B8C8D8E8F91BA
:1057F0009293959697999A9C9D9FA0A2A3A5A7A8DE
:10580000AAACAEB0B2B3B5B7B9BCBEC0C2C5C7C909
:10581000CCCED1D4D7D9DCDFE2E6E9ECF0F3F7FA6D
:10582000FE0000004FEA400C0CF1807CBCF17E4F82
:1058300028BF7047B0F1C04000F02BB990EA010FCB
:105840000CEAD11348BF42F48072624538BF634509
:1058500007D213F47F0F16D080EA010000F0004059
:10586000704710B500F0CFF8097EFC3E00F005B897
:1058700080EA010000F00040704780EA010000F07B
:10588000004000F006B912F47F0F04BF02487047D1
:1058900080EA010000F0FDB80000C07FC10DD1F129
:1058A0009E0206DB4FEA002343F0004323FA02F096
:1058B0007047004207D54FEA4001B1F1FE4F02D2D6
:1058C0004FF00000704710B500F09DF84992248019
:1058D000002070476FEA200070470000B0FA80F3A4
:1058E00010FA03F2C3F19D030AD0D90501EB12208F
:1058F000530638BF704700F1010008BF20F00100D7
:10590000704700004FF47F0C1CEAD0121EBF1CEA47
:10591000D11392EA0C0F93EA0C0F00F0478090EA43
:10592000010F48BF42F480724FF0004C4CEA002057
:105930004CEA012102EB0302A0FB0113A2F50002D5
:10594000002918BF43F001035B0028BF4FEA33036F
:1059500042EB22425FEA132C4CEBC2502EBFBCEB51
:10596000436FB2F57C0F70474FEA036CBCF1004FF8
:1059700008BF20F00100B2F57C0F38BF70470BD58F
:1059800082F0FF0212F5803FC8BF704700F1C040AF
:10599000D8BF00F00040704700F5000C5FEA4C0CE7
:1059A00048BF7047B0F1C04000F073B890EA010FF3
:1059B0000CEAD11348BF42F48072624538BF634598
:1059C00004D280EA010000F00040704710B500F0FA
:1059D0001AF800BF8900013E00F007B800F009B8CE
:1059E0005FEA410C5FEA1C6C08D080EA010000F01D
:1059F00050B85FEA400C5FEA1C6CF6D14FF00040F3
:105A0000A0F5800070470EF1020E2EF0030E5EF836
:105A1000044B244204D44FEA4102B2F17F4F11D823
:105A20004FEA4003B3F17F4F0CD80ED14FEAD07C40
:105A3000B2F17F4F0CEB4C0C0CF1020C08BF4CEB9D
:105A4000D17C04E04FF0080C01E04FEAD17C0CEB74
:105A50004C0324FA03F404F00704B4F1040C06D256
:105A60000EEB840CBDE810404CF0010C6047DFE801
:105A70000CF0070802024FF00040A0F5800010BDB6
:105A80000846420018BFD2F1807288BF00F0004083
:105A900010BDFF2141EAD050C005704780F00040A2
:105AA00090EA010F7FF5DDAD81F0004100F007B80D
:105AB00090EA010F48BF81F000413FF5D2AD421A94
:105AC00004D882F00042A0EB020011444FEAD05209
:105AD0004FF07F4C1CEA410FA2EBD15318BF9CEA58
